{
  "contractName": "Author",
  "abi": [
    {
      "constant": true,
      "inputs": [],
      "name": "name",
      "outputs": [
        {
          "name": "",
          "type": "string"
        }
      ],
      "payable": false,
      "stateMutability": "view",
      "type": "function"
    },
    {
      "constant": true,
      "inputs": [
        {
          "name": "",
          "type": "uint256"
        }
      ],
      "name": "publishedBooks",
      "outputs": [
        {
          "name": "",
          "type": "address"
        }
      ],
      "payable": false,
      "stateMutability": "view",
      "type": "function"
    },
    {
      "constant": true,
      "inputs": [
        {
          "name": "",
          "type": "uint256"
        }
      ],
      "name": "unpublishedBooks",
      "outputs": [
        {
          "name": "",
          "type": "address"
        }
      ],
      "payable": false,
      "stateMutability": "view",
      "type": "function"
    },
    {
      "inputs": [
        {
          "name": "_name",
          "type": "string"
        }
      ],
      "payable": false,
      "stateMutability": "nonpayable",
      "type": "constructor"
    },
    {
      "constant": false,
      "inputs": [
        {
          "name": "title",
          "type": "string"
        },
        {
          "name": "ipfsHash",
          "type": "string"
        }
      ],
      "name": "addNewBook",
      "outputs": [],
      "payable": false,
      "stateMutability": "nonpayable",
      "type": "function"
    },
    {
      "constant": false,
      "inputs": [
        {
          "name": "_pubAddr",
          "type": "address"
        },
        {
          "name": "_ipfsHash",
          "type": "string"
        },
        {
          "name": "_bookAddr",
          "type": "address"
        }
      ],
      "name": "requestApproval",
      "outputs": [],
      "payable": false,
      "stateMutability": "nonpayable",
      "type": "function"
    },
    {
      "constant": true,
      "inputs": [],
      "name": "getRequestIndex",
      "outputs": [
        {
          "name": "",
          "type": "uint256"
        }
      ],
      "payable": false,
      "stateMutability": "view",
      "type": "function"
    },
    {
      "constant": false,
      "inputs": [
        {
          "name": "index",
          "type": "uint256"
        }
      ],
      "name": "approveRequest",
      "outputs": [],
      "payable": false,
      "stateMutability": "nonpayable",
      "type": "function"
    }
  ],
  "bytecode": "0x60806040523480156200001157600080fd5b506040516200218638038062002186833981018060405260208110156200003757600080fd5b8101908080516401000000008111156200005057600080fd5b828101905060208101848111156200006757600080fd5b81518560018202830111640100000000821117156200008557600080fd5b50509291905050508060009080519060200190620000a5929190620000ee565b5033600360006101000a81548173ffffffffffffffffffffffffffffffffffffffff021916908373ffffffffffffffffffffffffffffffffffffffff160217905550506200019d565b828054600181600116156101000203166002900490600052602060002090601f016020900481019282601f106200013157805160ff191683800117855562000162565b8280016001018555821562000162579182015b828111156200016157825182559160200191906001019062000144565b5b50905062000171919062000175565b5090565b6200019a91905b80821115620001965760008160009055506001016200017c565b5090565b90565b611fd980620001ad6000396000f3fe6080604052600436106200008b576000357c0100000000000000000000000000000000000000000000000000000000900463ffffffff16806303702191146200009057806306fdde03146200019f5780635a6146ae14620002355780638a79b19b146200026357806392eea0a914620003cc578063a96ff811146200044b578063d7d1bbdb14620004ca575b600080fd5b3480156200009d57600080fd5b506200019d60048036036060811015620000b657600080fd5b81019080803573ffffffffffffffffffffffffffffffffffffffff16906020019092919080359060200190640100000000811115620000f457600080fd5b8201836020820111156200010757600080fd5b803590602001918460018302840111640100000000831117156200012a57600080fd5b91908080601f016020809104026020016040519081016040528093929190818152602001838380828437600081840152601f19601f820116905080830192505050505050509192919290803573ffffffffffffffffffffffffffffffffffffffff16906020019092919050505062000509565b005b348015620001ac57600080fd5b50620001b7620006fa565b6040518080602001828103825283818151815260200191508051906020019080838360005b83811015620001f9578082015181840152602081019050620001dc565b50505050905090810190601f168015620002275780820380516001836020036101000a031916815260200191505b509250505060405180910390f35b3480156200024257600080fd5b506200024d6200079c565b6040518082815260200191505060405180910390f35b3480156200027057600080fd5b50620003ca600480360360408110156200028957600080fd5b8101908080359060200190640100000000811115620002a757600080fd5b820183602082011115620002ba57600080fd5b80359060200191846001830284011164010000000083111715620002dd57600080fd5b91908080601f016020809104026020016040519081016040528093929190818152602001838380828437600081840152601f19601f820116905080830192505050505050509192919290803590602001906401000000008111156200034157600080fd5b8201836020820111156200035457600080fd5b803590602001918460018302840111640100000000831117156200037757600080fd5b91908080601f016020809104026020016040519081016040528093929190818152602001838380828437600081840152601f19601f820116905080830192505050505050509192919290505050620007a9565b005b348015620003d957600080fd5b506200040960048036036020811015620003f257600080fd5b810190808035906020019092919050505062000a1d565b604051808273ffffffffffffffffffffffffffffffffffffffff1673ffffffffffffffffffffffffffffffffffffffff16815260200191505060405180910390f35b3480156200045857600080fd5b5062000488600480360360208110156200047157600080fd5b810190808035906020019092919050505062000a5c565b604051808273ffffffffffffffffffffffffffffffffffffffff1673ffffffffffffffffffffffffffffffffffffffff16815260200191505060405180910390f35b348015620004d757600080fd5b506200050760048036036020811015620004f057600080fd5b810190808035906020019092919050505062000a9b565b005b600360009054906101000a900473ffffffffffffffffffffffffffffffffffffffff1673ffffffffffffffffffffffffffffffffffffffff163373ffffffffffffffffffffffffffffffffffffffff1614151515620005d0576040517f08c379a00000000000000000000000000000000000000000000000000000000081526004018080602001828103825260158152602001807f596f75206172652074686520617574686f72203a28000000000000000000000081525060200191505060405180910390fd5b60046060604051908101604052808573ffffffffffffffffffffffffffffffffffffffff1681526020018481526020018373ffffffffffffffffffffffffffffffffffffffff168152509080600181540180825580915050906001820390600052602060002090600302016000909192909190915060008201518160000160006101000a81548173ffffffffffffffffffffffffffffffffffffffff021916908373ffffffffffffffffffffffffffffffffffffffff1602179055506020820151816001019080519060200190620006aa9291906200132c565b5060408201518160020160006101000a81548173ffffffffffffffffffffffffffffffffffffffff021916908373ffffffffffffffffffffffffffffffffffffffff160217905550505050505050565b60008054600181600116156101000203166002900480601f016020809104026020016040519081016040528092919081815260200182805460018160011615610100020316600290048015620007945780601f10620007685761010080835404028352916020019162000794565b820191906000526020600020905b8154815290600101906020018083116200077657829003601f168201915b505050505081565b6000600480549050905090565b600360009054906101000a900473ffffffffffffffffffffffffffffffffffffffff1673ffffffffffffffffffffffffffffffffffffffff163373ffffffffffffffffffffffffffffffffffffffff161415156200086f576040517f08c379a00000000000000000000000000000000000000000000000000000000081526004018080602001828103825260198152602001807f596f7520617265206e6f742074686520617574686f72203a280000000000000081525060200191505060405180910390fd5b60008282306200087e620013b3565b8080602001806020018473ffffffffffffffffffffffffffffffffffffffff1673ffffffffffffffffffffffffffffffffffffffff168152602001838103835286818151815260200191508051906020019080838360005b83811015620008f3578082015181840152602081019050620008d6565b50505050905090810190601f168015620009215780820380516001836020036101000a031916815260200191505b50838103825285818151815260200191508051906020019080838360005b838110156200095c5780820151818401526020810190506200093f565b50505050905090810190601f1680156200098a5780820380516001836020036101000a031916815260200191505b5095505050505050604051809103906000f080158015620009af573d6000803e3d6000fd5b50905060028190806001815401808255809150509060018203906000526020600020016000909192909190916101000a81548173ffffffffffffffffffffffffffffffffffffffff021916908373ffffffffffffffffffffffffffffffffffffffff16021790555050505050565b60018181548110151562000a2d57fe5b906000526020600020016000915054906101000a900473ffffffffffffffffffffffffffffffffffffffff1681565b60028181548110151562000a6c57fe5b906000526020600020016000915054906101000a900473ffffffffffffffffffffffffffffffffffffffff1681565b600360009054906101000a900473ffffffffffffffffffffffffffffffffffffffff1673ffffffffffffffffffffffffffffffffffffffff163373ffffffffffffffffffffffffffffffffffffffff1614151562000b61576040517f08c379a00000000000000000000000000000000000000000000000000000000081526004018080602001828103825260198152602001807f596f7520617265206e6f742074686520617574686f72203a280000000000000081525060200191505060405180910390fd5b600060048281548110151562000b7357fe5b906000526020600020906003020160020160009054906101000a900473ffffffffffffffffffffffffffffffffffffffff169050600060048381548110151562000bb957fe5b906000526020600020906003020160000160009054906101000a900473ffffffffffffffffffffffffffffffffffffffff1690508173ffffffffffffffffffffffffffffffffffffffff1663c623674f6040518163ffffffff167c010000000000000000000000000000000000000000000000000000000002815260040160006040518083038186803b15801562000c5057600080fd5b505afa15801562000c65573d6000803e3d6000fd5b505050506040513d6000823e3d601f19601f82011682018060405250602081101562000c9057600080fd5b81019080805164010000000081111562000ca957600080fd5b8281019050602081018481111562000cc057600080fd5b815185600182028301116401000000008211171562000cde57600080fd5b50509291905050506040516020018082805190602001908083835b60208310151562000d20578051825260208201915060208101905060208303925062000cf9565b6001836020036101000a0380198251168184511680821785525050505050509050019150506040516020818303038152906040528051906020012060048481548110151562000d6b57fe5b9060005260206000209060030201600101604051602001808280546001816001161561010002031660029004801562000dde5780601f1062000dbb57610100808354040283529182019162000dde565b820191906000526020600020905b81548152906001019060200180831162000dc9575b5050915050604051602081830303815290604052805190602001201415620011af578173ffffffffffffffffffffffffffffffffffffffff1663cab6366160048581548110151562000e2c57fe5b906000526020600020906003020160000160009054906101000a900473ffffffffffffffffffffffffffffffffffffffff166040518263ffffffff167c0100000000000000000000000000000000000000000000000000000000028152600401808273ffffffffffffffffffffffffffffffffffffffff1673ffffffffffffffffffffffffffffffffffffffff168152602001915050600060405180830381600087803b15801562000edd57600080fd5b505af115801562000ef2573d6000803e3d6000fd5b505050508073ffffffffffffffffffffffffffffffffffffffff166354817f8860048581548110151562000f2257fe5b906000526020600020906003020160020160009054906101000a900473ffffffffffffffffffffffffffffffffffffffff166040518263ffffffff167c0100000000000000000000000000000000000000000000000000000000028152600401808273ffffffffffffffffffffffffffffffffffffffff1673ffffffffffffffffffffffffffffffffffffffff168152602001915050600060405180830381600087803b15801562000fd357600080fd5b505af115801562000fe8573d6000803e3d6000fd5b50505050600160048481548110151562000ffe57fe5b906000526020600020906003020160020160009054906101000a900473ffffffffffffffffffffffffffffffffffffffff1690806001815401808255809150509060018203906000526020600020016000909192909190916101000a81548173ffffffffffffffffffffffffffffffffffffffff021916908373ffffffffffffffffffffffffffffffffffffffff1602179055505060008090505b6002805490508110156200116b57600484815481101515620010b757fe5b906000526020600020906003020160020160009054906101000a900473ffffffffffffffffffffffffffffffffffffffff1673ffffffffffffffffffffffffffffffffffffffff166002828154811015156200110f57fe5b9060005260206000200160009054906101000a900473ffffffffffffffffffffffffffffffffffffffff1673ffffffffffffffffffffffffffffffffffffffff1614156200115d576200116b565b808060010191505062001099565b6002818154811015156200117b57fe5b9060005260206000200160006101000a81549073ffffffffffffffffffffffffffffffffffffffff021916905550620012a6565b8073ffffffffffffffffffffffffffffffffffffffff1663de853c28600485815481101515620011db57fe5b906000526020600020906003020160020160009054906101000a900473ffffffffffffffffffffffffffffffffffffffff166040518263ffffffff167c0100000000000000000000000000000000000000000000000000000000028152600401808273ffffffffffffffffffffffffffffffffffffffff1673ffffffffffffffffffffffffffffffffffffffff168152602001915050600060405180830381600087803b1580156200128c57600080fd5b505af1158015620012a1573d6000803e3d6000fd5b505050505b600483815481101515620012b657fe5b9060005260206000209060030201600080820160006101000a81549073ffffffffffffffffffffffffffffffffffffffff0219169055600182016000620012fe9190620013c4565b6002820160006101000a81549073ffffffffffffffffffffffffffffffffffffffff02191690555050505050565b828054600181600116156101000203166002900490600052602060002090601f016020900481019282601f106200136f57805160ff1916838001178555620013a0565b82800160010185558215620013a0579182015b828111156200139f57825182559160200191906001019062001382565b5b509050620013af919062001410565b5090565b604051610b75806200143983390190565b50805460018160011615610100020316600290046000825580601f10620013ec57506200140d565b601f0160209004906000526020600020908101906200140c919062001410565b5b50565b6200143591905b808211156200143157600081600090555060010162001417565b5090565b9056fe608060405234801561001057600080fd5b50604051610b75380380610b758339810180604052606081101561003357600080fd5b81019080805164010000000081111561004b57600080fd5b8281019050602081018481111561006157600080fd5b815185600182028301116401000000008211171561007e57600080fd5b5050929190602001805164010000000081111561009a57600080fd5b828101905060208101848111156100b057600080fd5b81518560018202830111640100000000821117156100cd57600080fd5b50509291906020018051906020019092919050505082600390805190602001906100f8929190610199565b50816002908051906020019061010f929190610199565b50336000806101000a81548173ffffffffffffffffffffffffffffffffffffffff021916908373ffffffffffffffffffffffffffffffffffffffff16021790555080600560006101000a81548173ffffffffffffffffffffffffffffffffffffffff021916908373ffffffffffffffffffffffffffffffffffffffff16021790555050505061023e565b828054600181600116156101000203166002900490600052602060002090601f016020900481019282601f106101da57805160ff1916838001178555610208565b82800160010185558215610208579182015b828111156102075782518255916020019190600101906101ec565b5b5090506102159190610219565b5090565b61023b91905b8082111561023757600081600090555060010161021f565b5090565b90565b6109288061024d6000396000f3fe60806040526004361061008e576000357c0100000000000000000000000000000000000000000000000000000000900463ffffffff16806322ea2d961461009357806346533c90146101fc5780634a79d50c146102275780638c72c54e146102b7578063a6c3e6b91461030e578063b62367c914610365578063c623674f146103bc578063cab636611461044c575b600080fd5b34801561009f57600080fd5b506100a861049d565b604051808673ffffffffffffffffffffffffffffffffffffffff1673ffffffffffffffffffffffffffffffffffffffff1681526020018573ffffffffffffffffffffffffffffffffffffffff1673ffffffffffffffffffffffffffffffffffffffff1681526020018060200180602001848152602001838103835286818151815260200191508051906020019080838360005b8381101561015657808201518184015260208101905061013b565b50505050905090810190601f1680156101835780820380516001836020036101000a031916815260200191505b50838103825285818151815260200191508051906020019080838360005b838110156101bc5780820151818401526020810190506101a1565b50505050905090810190601f1680156101e95780820380516001836020036101000a031916815260200191505b5097505050505050505060405180910390f35b34801561020857600080fd5b5061021161063a565b6040518082815260200191505060405180910390f35b34801561023357600080fd5b5061023c610640565b6040518080602001828103825283818151815260200191508051906020019080838360005b8381101561027c578082015181840152602081019050610261565b50505050905090810190601f1680156102a95780820380516001836020036101000a031916815260200191505b509250505060405180910390f35b3480156102c357600080fd5b506102cc6106de565b604051808273ffffffffffffffffffffffffffffffffffffffff1673ffffffffffffffffffffffffffffffffffffffff16815260200191505060405180910390f35b34801561031a57600080fd5b50610323610704565b604051808273ffffffffffffffffffffffffffffffffffffffff1673ffffffffffffffffffffffffffffffffffffffff16815260200191505060405180910390f35b34801561037157600080fd5b5061037a610729565b604051808273ffffffffffffffffffffffffffffffffffffffff1673ffffffffffffffffffffffffffffffffffffffff16815260200191505060405180910390f35b3480156103c857600080fd5b506103d161074f565b6040518080602001828103825283818151815260200191508051906020019080838360005b838110156104115780820151818401526020810190506103f6565b50505050905090810190601f16801561043e5780820380516001836020036101000a031916815260200191505b509250505060405180910390f35b34801561045857600080fd5b5061049b6004803603602081101561046f57600080fd5b81019080803573ffffffffffffffffffffffffffffffffffffffff1690602001909291905050506107ed565b005b60008060608060008060009054906101000a900473ffffffffffffffffffffffffffffffffffffffff16600160009054906101000a900473ffffffffffffffffffffffffffffffffffffffff1660026003600454828054600181600116156101000203166002900480601f0160208091040260200160405190810160405280929190818152602001828054600181600116156101000203166002900480156105865780601f1061055b57610100808354040283529160200191610586565b820191906000526020600020905b81548152906001019060200180831161056957829003601f168201915b50505050509250818054600181600116156101000203166002900480601f0160208091040260200160405190810160405280929190818152602001828054600181600116156101000203166002900480156106225780601f106105f757610100808354040283529160200191610622565b820191906000526020600020905b81548152906001019060200180831161060557829003601f168201915b50505050509150945094509450945094509091929394565b60045481565b60038054600181600116156101000203166002900480601f0160208091040260200160405190810160405280929190818152602001828054600181600116156101000203166002900480156106d65780601f106106ab576101008083540402835291602001916106d6565b820191906000526020600020905b8154815290600101906020018083116106b957829003601f168201915b505050505081565b600160009054906101000a900473ffffffffffffffffffffffffffffffffffffffff1681565b6000809054906101000a900473ffffffffffffffffffffffffffffffffffffffff1681565b600560009054906101000a900473ffffffffffffffffffffffffffffffffffffffff1681565b60028054600181600116156101000203166002900480601f0160208091040260200160405190810160405280929190818152602001828054600181600116156101000203166002900480156107e55780601f106107ba576101008083540402835291602001916107e5565b820191906000526020600020905b8154815290600101906020018083116107c857829003601f168201915b505050505081565b6000809054906101000a900473ffffffffffffffffffffffffffffffffffffffff1673ffffffffffffffffffffffffffffffffffffffff163373ffffffffffffffffffffffffffffffffffffffff161415156108b1576040517f08c379a00000000000000000000000000000000000000000000000000000000081526004018080602001828103825260198152602001807f596f7520617265206e6f742074686520617574686f72203a280000000000000081525060200191505060405180910390fd5b80600160006101000a81548173ffffffffffffffffffffffffffffffffffffffff021916908373ffffffffffffffffffffffffffffffffffffffff160217905550426004819055505056fea165627a7a72305820890158082f935dacb7cc72cd6c21f9af9a9c52c6d300d1a76177923ea80abece0029a165627a7a72305820225b9b7a429f02201afd4814de26949be4cbbaa5833a73be21c49c4074d2b16b0029",
  "source": "pragma solidity >=0.4.0 <0.6.0;\n\nimport \"./Book.sol\";\nimport \"./Publisher.sol\";\n\ncontract Author {\n    \n    string public name;\n    address[] public publishedBooks;\n    address[] public unpublishedBooks;\n    address myAddress;\n    \n    struct Request {\n        address publisher;\n        string ipfsHash;\n        address bookAddr;\n    }\n    \n    Request[] requests;\n    \n    //modifiers\n    modifier OnlyMe() {\n        require(msg.sender == myAddress, 'You are not the author :(');\n        _;\n    }\n    \n    modifier NotMe() {\n        require(msg.sender != myAddress, 'You are the author :(');\n        _;\n    }\n    \n    constructor(string memory _name) public {\n        name = _name;\n        myAddress = msg.sender;\n    }\n    \n    function addNewBook(string memory title, string memory ipfsHash) OnlyMe public {\n        //TODO: check if the book exists\n        address book = address(new Book(title, ipfsHash, address(this)));\n        unpublishedBooks.push(book);\n    }\n    \n    function requestApproval(address _pubAddr, string memory _ipfsHash, address _bookAddr) NotMe public  {\n        requests.push(Request(_pubAddr, _ipfsHash, _bookAddr));\n        //add event\n    }\n    \n    function getRequestIndex() view public returns( uint ) {\n        return (requests.length);\n    }\n    \n    function approveRequest(uint index) OnlyMe public {\n        Book book = Book(requests[index].bookAddr);\n        Publisher publisher = Publisher(requests[index].publisher);\n        //TODO: check book exists, doest not have a publisher, publisher exists\n        // require(book.publisher == 0);\n        if(keccak256(abi.encodePacked(requests[index].ipfsHash)) == keccak256(abi.encodePacked(book.ipfsHash()))) {\n            book.setPublisher(requests[index].publisher);\n            publisher.requestApproved(requests[index].bookAddr);\n            publishedBooks.push(requests[index].bookAddr);\n            uint i;\n            for(i = 0;i < unpublishedBooks.length;i++) {\n                if(unpublishedBooks[i] == requests[index].bookAddr) {\n                    break;\n                }\n            }\n            delete unpublishedBooks[i];\n            //inform publisher\n            //add to publisher list\n        } else {\n            publisher.requestRejected(requests[index].bookAddr);\n            //failure message\n            //remove from list of publisher\n        }\n        delete requests[index];\n    }\n    \n}\n\n",
  "sourcePath": "/media/sonu/067A23BD7A23A87F/Major/publish_auth/PrivateContract/contracts/Author.sol",
  "compiler": {
    "name": "solc",
    "version": "0.5.0+commit.1d4f565a.Emscripten.clang"
  },
  "schemaVersion": "3.0.1",
  "updatedAt": "2019-03-11T07:33:48.966Z",
  "devdoc": {
    "methods": {}
  },
  "userdoc": {
    "methods": {}
  }
}