{
  "contractName": "Book",
  "abi": [
    {
      "constant": true,
      "inputs": [],
      "name": "dateOfPublishing",
      "outputs": [
        {
          "name": "",
          "type": "uint256"
        }
      ],
      "payable": false,
      "stateMutability": "view",
      "type": "function"
    },
    {
      "constant": true,
      "inputs": [],
      "name": "title",
      "outputs": [
        {
          "name": "",
          "type": "string"
        }
      ],
      "payable": false,
      "stateMutability": "view",
      "type": "function"
    },
    {
      "constant": true,
      "inputs": [],
      "name": "publisher",
      "outputs": [
        {
          "name": "",
          "type": "address"
        }
      ],
      "payable": false,
      "stateMutability": "view",
      "type": "function"
    },
    {
      "constant": true,
      "inputs": [],
      "name": "author",
      "outputs": [
        {
          "name": "",
          "type": "address"
        }
      ],
      "payable": false,
      "stateMutability": "view",
      "type": "function"
    },
    {
      "constant": true,
      "inputs": [],
      "name": "authContract",
      "outputs": [
        {
          "name": "",
          "type": "address"
        }
      ],
      "payable": false,
      "stateMutability": "view",
      "type": "function"
    },
    {
      "constant": true,
      "inputs": [],
      "name": "ipfsHash",
      "outputs": [
        {
          "name": "",
          "type": "string"
        }
      ],
      "payable": false,
      "stateMutability": "view",
      "type": "function"
    },
    {
      "inputs": [
        {
          "name": "_title",
          "type": "string"
        },
        {
          "name": "_ipfsHash",
          "type": "string"
        },
        {
          "name": "_authContract",
          "type": "address"
        }
      ],
      "payable": true,
      "stateMutability": "payable",
      "type": "constructor"
    },
    {
      "constant": false,
      "inputs": [
        {
          "name": "_publisher",
          "type": "address"
        }
      ],
      "name": "setPublisher",
      "outputs": [],
      "payable": false,
      "stateMutability": "nonpayable",
      "type": "function"
    },
    {
      "constant": true,
      "inputs": [],
      "name": "getBookInfo",
      "outputs": [
        {
          "name": "",
          "type": "address"
        },
        {
          "name": "",
          "type": "address"
        },
        {
          "name": "",
          "type": "string"
        },
        {
          "name": "",
          "type": "string"
        },
        {
          "name": "",
          "type": "uint256"
        }
      ],
      "payable": false,
      "stateMutability": "view",
      "type": "function"
    }
  ],
  "bytecode": "0x6080604052604051610b68380380610b688339810180604052606081101561002657600080fd5b81019080805164010000000081111561003e57600080fd5b8281019050602081018481111561005457600080fd5b815185600182028301116401000000008211171561007157600080fd5b5050929190602001805164010000000081111561008d57600080fd5b828101905060208101848111156100a357600080fd5b81518560018202830111640100000000821117156100c057600080fd5b50509291906020018051906020019092919050505082600390805190602001906100eb92919061018c565b50816002908051906020019061010292919061018c565b50336000806101000a81548173ffffffffffffffffffffffffffffffffffffffff021916908373ffffffffffffffffffffffffffffffffffffffff16021790555080600560006101000a81548173ffffffffffffffffffffffffffffffffffffffff021916908373ffffffffffffffffffffffffffffffffffffffff160217905550505050610231565b828054600181600116156101000203166002900490600052602060002090601f016020900481019282601f106101cd57805160ff19168380011785556101fb565b828001600101855582156101fb579182015b828111156101fa5782518255916020019190600101906101df565b5b509050610208919061020c565b5090565b61022e91905b8082111561022a576000816000905550600101610212565b5090565b90565b610928806102406000396000f3fe60806040526004361061008e576000357c0100000000000000000000000000000000000000000000000000000000900463ffffffff16806322ea2d961461009357806346533c90146101fc5780634a79d50c146102275780638c72c54e146102b7578063a6c3e6b91461030e578063b62367c914610365578063c623674f146103bc578063cab636611461044c575b600080fd5b34801561009f57600080fd5b506100a861049d565b604051808673ffffffffffffffffffffffffffffffffffffffff1673ffffffffffffffffffffffffffffffffffffffff1681526020018573ffffffffffffffffffffffffffffffffffffffff1673ffffffffffffffffffffffffffffffffffffffff1681526020018060200180602001848152602001838103835286818151815260200191508051906020019080838360005b8381101561015657808201518184015260208101905061013b565b50505050905090810190601f1680156101835780820380516001836020036101000a031916815260200191505b50838103825285818151815260200191508051906020019080838360005b838110156101bc5780820151818401526020810190506101a1565b50505050905090810190601f1680156101e95780820380516001836020036101000a031916815260200191505b5097505050505050505060405180910390f35b34801561020857600080fd5b5061021161063a565b6040518082815260200191505060405180910390f35b34801561023357600080fd5b5061023c610640565b6040518080602001828103825283818151815260200191508051906020019080838360005b8381101561027c578082015181840152602081019050610261565b50505050905090810190601f1680156102a95780820380516001836020036101000a031916815260200191505b509250505060405180910390f35b3480156102c357600080fd5b506102cc6106de565b604051808273ffffffffffffffffffffffffffffffffffffffff1673ffffffffffffffffffffffffffffffffffffffff16815260200191505060405180910390f35b34801561031a57600080fd5b50610323610704565b604051808273ffffffffffffffffffffffffffffffffffffffff1673ffffffffffffffffffffffffffffffffffffffff16815260200191505060405180910390f35b34801561037157600080fd5b5061037a610729565b604051808273ffffffffffffffffffffffffffffffffffffffff1673ffffffffffffffffffffffffffffffffffffffff16815260200191505060405180910390f35b3480156103c857600080fd5b506103d161074f565b6040518080602001828103825283818151815260200191508051906020019080838360005b838110156104115780820151818401526020810190506103f6565b50505050905090810190601f16801561043e5780820380516001836020036101000a031916815260200191505b509250505060405180910390f35b34801561045857600080fd5b5061049b6004803603602081101561046f57600080fd5b81019080803573ffffffffffffffffffffffffffffffffffffffff1690602001909291905050506107ed565b005b60008060608060008060009054906101000a900473ffffffffffffffffffffffffffffffffffffffff16600160009054906101000a900473ffffffffffffffffffffffffffffffffffffffff1660026003600454828054600181600116156101000203166002900480601f0160208091040260200160405190810160405280929190818152602001828054600181600116156101000203166002900480156105865780601f1061055b57610100808354040283529160200191610586565b820191906000526020600020905b81548152906001019060200180831161056957829003601f168201915b50505050509250818054600181600116156101000203166002900480601f0160208091040260200160405190810160405280929190818152602001828054600181600116156101000203166002900480156106225780601f106105f757610100808354040283529160200191610622565b820191906000526020600020905b81548152906001019060200180831161060557829003601f168201915b50505050509150945094509450945094509091929394565b60045481565b60038054600181600116156101000203166002900480601f0160208091040260200160405190810160405280929190818152602001828054600181600116156101000203166002900480156106d65780601f106106ab576101008083540402835291602001916106d6565b820191906000526020600020905b8154815290600101906020018083116106b957829003601f168201915b505050505081565b600160009054906101000a900473ffffffffffffffffffffffffffffffffffffffff1681565b6000809054906101000a900473ffffffffffffffffffffffffffffffffffffffff1681565b600560009054906101000a900473ffffffffffffffffffffffffffffffffffffffff1681565b60028054600181600116156101000203166002900480601f0160208091040260200160405190810160405280929190818152602001828054600181600116156101000203166002900480156107e55780601f106107ba576101008083540402835291602001916107e5565b820191906000526020600020905b8154815290600101906020018083116107c857829003601f168201915b505050505081565b6000809054906101000a900473ffffffffffffffffffffffffffffffffffffffff1673ffffffffffffffffffffffffffffffffffffffff163373ffffffffffffffffffffffffffffffffffffffff161415156108b1576040517f08c379a00000000000000000000000000000000000000000000000000000000081526004018080602001828103825260198152602001807f596f7520617265206e6f742074686520617574686f72203a280000000000000081525060200191505060405180910390fd5b80600160006101000a81548173ffffffffffffffffffffffffffffffffffffffff021916908373ffffffffffffffffffffffffffffffffffffffff160217905550426004819055505056fea165627a7a72305820d93242c7b3aeca61ca2ab26d950a4fbafcfd9bbf60e256eec80f32f952a4218c0029",
  "source": "pragma solidity >=0.4.0 <0.6.0;\ncontract Book {\n    \n    address public author;//author's user address\n    address public publisher;//publisher's user address\n    string public ipfsHash;\n    string public title;\n    uint public dateOfPublishing;\n    address public authContract;\n    \n    //modifiers\n    modifier  OnlyAuthor() {\n        require(msg.sender == author, 'You are not the author :(');\n        _;\n    }\n    \n    constructor(string memory _title, string memory _ipfsHash, address _authContract) public payable {\n        title = _title;\n        ipfsHash = _ipfsHash;\n        author = msg.sender;\n        authContract = _authContract;\n    }\n    \n    function setPublisher(address _publisher) OnlyAuthor public {\n        publisher = _publisher;\n        dateOfPublishing = now;\n    }\n\n    function getBookInfo() view public returns (address, address, string memory, string memory, uint) { \n        return (author, publisher, ipfsHash, title, dateOfPublishing);\n    }\n\n}\n",
  "sourcePath": "/media/sonu/067A23BD7A23A87F/Major/publish_auth/PrivateContract/contracts/Book.sol",
  "compiler": {
    "name": "solc",
    "version": "0.5.0+commit.1d4f565a.Emscripten.clang"
  },
  "schemaVersion": "3.0.5",
  "updatedAt": "2019-04-18T16:08:27.656Z",
  "devdoc": {
    "methods": {}
  },
  "userdoc": {
    "methods": {}
  }
}