{
  "contractName": "Book",
  "abi": [
    {
      "constant": true,
      "inputs": [],
      "name": "dateOfPublishing",
      "outputs": [
        {
          "name": "",
          "type": "uint256"
        }
      ],
      "payable": false,
      "stateMutability": "view",
      "type": "function"
    },
    {
      "constant": true,
      "inputs": [],
      "name": "title",
      "outputs": [
        {
          "name": "",
          "type": "string"
        }
      ],
      "payable": false,
      "stateMutability": "view",
      "type": "function"
    },
    {
      "constant": true,
      "inputs": [],
      "name": "publisher",
      "outputs": [
        {
          "name": "",
          "type": "address"
        }
      ],
      "payable": false,
      "stateMutability": "view",
      "type": "function"
    },
    {
      "constant": true,
      "inputs": [],
      "name": "author",
      "outputs": [
        {
          "name": "",
          "type": "address"
        }
      ],
      "payable": false,
      "stateMutability": "view",
      "type": "function"
    },
    {
      "constant": true,
      "inputs": [],
      "name": "ipfsHash",
      "outputs": [
        {
          "name": "",
          "type": "string"
        }
      ],
      "payable": false,
      "stateMutability": "view",
      "type": "function"
    },
    {
      "inputs": [
        {
          "name": "_title",
          "type": "string"
        },
        {
          "name": "_ipfsHash",
          "type": "string"
        }
      ],
      "payable": false,
      "stateMutability": "nonpayable",
      "type": "constructor"
    },
    {
      "constant": false,
      "inputs": [
        {
          "name": "_publisher",
          "type": "address"
        }
      ],
      "name": "setPublisher",
      "outputs": [],
      "payable": false,
      "stateMutability": "nonpayable",
      "type": "function"
    },
    {
      "constant": true,
      "inputs": [],
      "name": "getBookDetails",
      "outputs": [
        {
          "name": "_title",
          "type": "string"
        },
        {
          "name": "_ipfsHash",
          "type": "string"
        }
      ],
      "payable": false,
      "stateMutability": "nonpayable",
      "type": "function"
    }
  ],
  "bytecode": "0x608060405234801561001057600080fd5b506040516109db3803806109db8339810180604052604081101561003357600080fd5b81019080805164010000000081111561004b57600080fd5b8281019050602081018481111561006157600080fd5b815185600182028301116401000000008211171561007e57600080fd5b5050929190602001805164010000000081111561009a57600080fd5b828101905060208101848111156100b057600080fd5b81518560018202830111640100000000821117156100cd57600080fd5b505092919050505081600390805190602001906100eb92919061014a565b50806002908051906020019061010292919061014a565b50336000806101000a81548173ffffffffffffffffffffffffffffffffffffffff021916908373ffffffffffffffffffffffffffffffffffffffff16021790555050506101ef565b828054600181600116156101000203166002900490600052602060002090601f016020900481019282601f1061018b57805160ff19168380011785556101b9565b828001600101855582156101b9579182015b828111156101b857825182559160200191906001019061019d565b5b5090506101c691906101ca565b5090565b6101ec91905b808211156101e85760008160009055506001016101d0565b5090565b90565b6107dd806101fe6000396000f3fe608060405260043610610083576000357c0100000000000000000000000000000000000000000000000000000000900463ffffffff16806346533c90146100885780634a79d50c146100b35780638c72c54e14610143578063a6c3e6b91461019a578063c623674f146101f1578063cab6366114610281578063de761c66146102d2575b600080fd5b34801561009457600080fd5b5061009d6103ce565b6040518082815260200191505060405180910390f35b3480156100bf57600080fd5b506100c86103d4565b6040518080602001828103825283818151815260200191508051906020019080838360005b838110156101085780820151818401526020810190506100ed565b50505050905090810190601f1680156101355780820380516001836020036101000a031916815260200191505b509250505060405180910390f35b34801561014f57600080fd5b50610158610472565b604051808273ffffffffffffffffffffffffffffffffffffffff1673ffffffffffffffffffffffffffffffffffffffff16815260200191505060405180910390f35b3480156101a657600080fd5b506101af610498565b604051808273ffffffffffffffffffffffffffffffffffffffff1673ffffffffffffffffffffffffffffffffffffffff16815260200191505060405180910390f35b3480156101fd57600080fd5b506102066104bd565b6040518080602001828103825283818151815260200191508051906020019080838360005b8381101561024657808201518184015260208101905061022b565b50505050905090810190601f1680156102735780820380516001836020036101000a031916815260200191505b509250505060405180910390f35b34801561028d57600080fd5b506102d0600480360360208110156102a457600080fd5b81019080803573ffffffffffffffffffffffffffffffffffffffff16906020019092919050505061055b565b005b3480156102de57600080fd5b506102e761066a565b604051808060200180602001838103835285818151815260200191508051906020019080838360005b8381101561032b578082015181840152602081019050610310565b50505050905090810190601f1680156103585780820380516001836020036101000a031916815260200191505b50838103825284818151815260200191508051906020019080838360005b83811015610391578082015181840152602081019050610376565b50505050905090810190601f1680156103be5780820380516001836020036101000a031916815260200191505b5094505050505060405180910390f35b60045481565b60038054600181600116156101000203166002900480601f01602080910402602001604051908101604052809291908181526020018280546001816001161561010002031660029004801561046a5780601f1061043f5761010080835404028352916020019161046a565b820191906000526020600020905b81548152906001019060200180831161044d57829003601f168201915b505050505081565b600160009054906101000a900473ffffffffffffffffffffffffffffffffffffffff1681565b6000809054906101000a900473ffffffffffffffffffffffffffffffffffffffff1681565b60028054600181600116156101000203166002900480601f0160208091040260200160405190810160405280929190818152602001828054600181600116156101000203166002900480156105535780601f1061052857610100808354040283529160200191610553565b820191906000526020600020905b81548152906001019060200180831161053657829003601f168201915b505050505081565b6000809054906101000a900473ffffffffffffffffffffffffffffffffffffffff1673ffffffffffffffffffffffffffffffffffffffff163373ffffffffffffffffffffffffffffffffffffffff1614151561061f576040517f08c379a00000000000000000000000000000000000000000000000000000000081526004018080602001828103825260198152602001807f596f7520617265206e6f742074686520617574686f72203a280000000000000081525060200191505060405180910390fd5b80600160006101000a81548173ffffffffffffffffffffffffffffffffffffffff021916908373ffffffffffffffffffffffffffffffffffffffff1602179055504260048190555050565b60608060036002818054600181600116156101000203166002900480601f0160208091040260200160405190810160405280929190818152602001828054600181600116156101000203166002900480156107065780601f106106db57610100808354040283529160200191610706565b820191906000526020600020905b8154815290600101906020018083116106e957829003601f168201915b50505050509150808054600181600116156101000203166002900480601f0160208091040260200160405190810160405280929190818152602001828054600181600116156101000203166002900480156107a25780601f10610777576101008083540402835291602001916107a2565b820191906000526020600020905b81548152906001019060200180831161078557829003601f168201915b5050505050905091509150909156fea165627a7a72305820fff9c2ee88df5db1d63153391f242ee68b18f02270c7c965294d7422adba12e50029",
  "source": "pragma solidity >=0.4.0 <0.6.0;\n\ncontract Book {\n    \n    address public author;\n    address public publisher;\n    string public ipfsHash;\n    string public title;\n    uint public dateOfPublishing;\n    \n    //modifiers\n    modifier  OnlyAuthor() {\n        require(msg.sender == author, 'You are not the author :(');\n        _;\n    }\n    \n    constructor(string memory _title, string memory _ipfsHash) public {\n        title = _title;\n        ipfsHash = _ipfsHash;\n        author = msg.sender;\n    }\n    \n    function setPublisher(address _publisher) OnlyAuthor public {\n        publisher = _publisher;\n        dateOfPublishing = now;\n    }\n    \n    function getBookDetails() public returns (string memory _title , string memory _ipfsHash) {\n        return(title , ipfsHash);\n    }\n    \n    \n}",
  "sourcePath": "/media/sonu/067A23BD7A23A87F/Major/publish_auth (copy)/private-chain/contracts/OnlineBooksAuthenticity.sol",
  "compiler": {
    "name": "solc",
    "version": "0.5.0+commit.1d4f565a.Emscripten.clang"
  },
  "schemaVersion": "3.0.1",
  "updatedAt": "2019-03-08T11:55:56.039Z",
  "devdoc": {
    "methods": {}
  },
  "userdoc": {
    "methods": {}
  }
}