{
  "contractName": "Publisher",
  "abi": [
    {
      "constant": true,
      "inputs": [],
      "name": "name",
      "outputs": [
        {
          "name": "",
          "type": "string"
        }
      ],
      "payable": false,
      "stateMutability": "view",
      "type": "function"
    },
    {
      "constant": true,
      "inputs": [
        {
          "name": "",
          "type": "uint256"
        }
      ],
      "name": "publishedBooks",
      "outputs": [
        {
          "name": "",
          "type": "address"
        }
      ],
      "payable": false,
      "stateMutability": "view",
      "type": "function"
    },
    {
      "inputs": [
        {
          "name": "_name",
          "type": "string"
        }
      ],
      "payable": false,
      "stateMutability": "nonpayable",
      "type": "constructor"
    },
    {
      "constant": false,
      "inputs": [
        {
          "name": "bookAddr",
          "type": "address"
        },
        {
          "name": "ipfsHash",
          "type": "string"
        }
      ],
      "name": "requestApproval",
      "outputs": [],
      "payable": false,
      "stateMutability": "nonpayable",
      "type": "function"
    },
    {
      "constant": false,
      "inputs": [
        {
          "name": "bookAddr",
          "type": "address"
        }
      ],
      "name": "requestApproved",
      "outputs": [],
      "payable": false,
      "stateMutability": "nonpayable",
      "type": "function"
    },
    {
      "constant": false,
      "inputs": [
        {
          "name": "bookAddr",
          "type": "address"
        }
      ],
      "name": "requestRejected",
      "outputs": [],
      "payable": false,
      "stateMutability": "nonpayable",
      "type": "function"
    }
  ],
  "bytecode": "0x608060405234801561001057600080fd5b50604051610bee380380610bee8339810180604052602081101561003357600080fd5b81019080805164010000000081111561004b57600080fd5b8281019050602081018481111561006157600080fd5b815185600182028301116401000000008211171561007e57600080fd5b5050929190505050806000908051906020019061009c9291906100e4565b5033600360006101000a81548173ffffffffffffffffffffffffffffffffffffffff021916908373ffffffffffffffffffffffffffffffffffffffff16021790555050610189565b828054600181600116156101000203166002900490600052602060002090601f016020900481019282601f1061012557805160ff1916838001178555610153565b82800160010185558215610153579182015b82811115610152578251825591602001919060010190610137565b5b5090506101609190610164565b5090565b61018691905b8082111561018257600081600090555060010161016a565b5090565b90565b610a56806101986000396000f3fe60806040526004361061006d576000357c0100000000000000000000000000000000000000000000000000000000900463ffffffff16806306fdde03146100725780631bdd3cbe1461010257806354817f88146101ea57806392eea0a91461023b578063de853c28146102b6575b600080fd5b34801561007e57600080fd5b50610087610307565b6040518080602001828103825283818151815260200191508051906020019080838360005b838110156100c75780820151818401526020810190506100ac565b50505050905090810190601f1680156100f45780820380516001836020036101000a031916815260200191505b509250505060405180910390f35b34801561010e57600080fd5b506101e86004803603604081101561012557600080fd5b81019080803573ffffffffffffffffffffffffffffffffffffffff1690602001909291908035906020019064010000000081111561016257600080fd5b82018360208201111561017457600080fd5b8035906020019184600183028401116401000000008311171561019657600080fd5b91908080601f016020809104026020016040519081016040528093929190818152602001838380828437600081840152601f19601f8201169050808301925050505050505091929192905050506103a5565b005b3480156101f657600080fd5b506102396004803603602081101561020d57600080fd5b81019080803573ffffffffffffffffffffffffffffffffffffffff169060200190929190505050610501565b005b34801561024757600080fd5b506102746004803603602081101561025e57600080fd5b8101908080359060200190929190505050610733565b604051808273ffffffffffffffffffffffffffffffffffffffff1673ffffffffffffffffffffffffffffffffffffffff16815260200191505060405180910390f35b3480156102c257600080fd5b50610305600480360360208110156102d957600080fd5b81019080803573ffffffffffffffffffffffffffffffffffffffff169060200190929190505050610771565b005b60008054600181600116156101000203166002900480601f01602080910402602001604051908101604052809291908181526020018280546001816001161561010002031660029004801561039d5780601f106103725761010080835404028352916020019161039d565b820191906000526020600020905b81548152906001019060200180831161038057829003601f168201915b505050505081565b600360009054906101000a900473ffffffffffffffffffffffffffffffffffffffff1673ffffffffffffffffffffffffffffffffffffffff163373ffffffffffffffffffffffffffffffffffffffff1614151561040157600080fd5b600082905060008173ffffffffffffffffffffffffffffffffffffffff1663b62367c96040518163ffffffff167c010000000000000000000000000000000000000000000000000000000002815260040160206040518083038186803b15801561046a57600080fd5b505afa15801561047e573d6000803e3d6000fd5b505050506040513d602081101561049457600080fd5b8101908080519060200190929190505050905082600260008673ffffffffffffffffffffffffffffffffffffffff1673ffffffffffffffffffffffffffffffffffffffff16815260200190815260200160002090805190602001906104fa92919061093d565b5050505050565b600081905060008173ffffffffffffffffffffffffffffffffffffffff1663b62367c96040518163ffffffff167c010000000000000000000000000000000000000000000000000000000002815260040160206040518083038186803b15801561056a57600080fd5b505afa15801561057e573d6000803e3d6000fd5b505050506040513d602081101561059457600080fd5b810190808051906020019092919050505090508173ffffffffffffffffffffffffffffffffffffffff1663a6c3e6b96040518163ffffffff167c010000000000000000000000000000000000000000000000000000000002815260040160206040518083038186803b15801561060957600080fd5b505afa15801561061d573d6000803e3d6000fd5b505050506040513d602081101561063357600080fd5b810190808051906020019092919050505073ffffffffffffffffffffffffffffffffffffffff163373ffffffffffffffffffffffffffffffffffffffff1614151561067d57600080fd5b60018390806001815401808255809150509060018203906000526020600020016000909192909190916101000a81548173ffffffffffffffffffffffffffffffffffffffff021916908373ffffffffffffffffffffffffffffffffffffffff16021790555050600260008473ffffffffffffffffffffffffffffffffffffffff1673ffffffffffffffffffffffffffffffffffffffff168152602001908152602001600020600061072e91906109bd565b505050565b60018181548110151561074257fe5b906000526020600020016000915054906101000a900473ffffffffffffffffffffffffffffffffffffffff1681565b600081905060008173ffffffffffffffffffffffffffffffffffffffff1663b62367c96040518163ffffffff167c010000000000000000000000000000000000000000000000000000000002815260040160206040518083038186803b1580156107da57600080fd5b505afa1580156107ee573d6000803e3d6000fd5b505050506040513d602081101561080457600080fd5b810190808051906020019092919050505090508173ffffffffffffffffffffffffffffffffffffffff1663a6c3e6b96040518163ffffffff167c010000000000000000000000000000000000000000000000000000000002815260040160206040518083038186803b15801561087957600080fd5b505afa15801561088d573d6000803e3d6000fd5b505050506040513d60208110156108a357600080fd5b810190808051906020019092919050505073ffffffffffffffffffffffffffffffffffffffff163373ffffffffffffffffffffffffffffffffffffffff161415156108ed57600080fd5b600260008473ffffffffffffffffffffffffffffffffffffffff1673ffffffffffffffffffffffffffffffffffffffff168152602001908152602001600020600061093891906109bd565b505050565b828054600181600116156101000203166002900490600052602060002090601f016020900481019282601f1061097e57805160ff19168380011785556109ac565b828001600101855582156109ac579182015b828111156109ab578251825591602001919060010190610990565b5b5090506109b99190610a05565b5090565b50805460018160011615610100020316600290046000825580601f106109e35750610a02565b601f016020900490600052602060002090810190610a019190610a05565b5b50565b610a2791905b80821115610a23576000816000905550600101610a0b565b5090565b9056fea165627a7a72305820bf8f205031cb5366c5069d1dcf48a467eadbe9a1354b116a1c6bd91a5e7039530029",
  "source": "pragma solidity >=0.4.0 <0.6.0;\n\nimport \"./Book.sol\";\nimport \"./Author.sol\";\n\ncontract Publisher {\n    \n    string public name;\n    address[] public publishedBooks;//contract addresses\n    mapping(address => string) requests;\n    address myAddress;//my user address\n    \n    //modifiers\n    modifier OnlyMe() {\n        require(msg.sender == myAddress);\n        _;\n    }\n    \n    modifier NotMe() {\n        require(msg.sender != myAddress);\n        _;\n    }\n    \n    constructor(string memory _name) public {\n        name = _name;\n        myAddress = msg.sender;\n    }\n    \n    function requestApproval(address bookAddr, string memory ipfsHash) OnlyMe public  {\n        //check book not published\n        Book book = Book(bookAddr);\n        //send author address directly as parameter\n        Author author = Author(book.authContract());\n        //add in requests\n        requests[bookAddr] = ipfsHash;\n        //author.requestApproval() or make event ??\n    }\n    \n    function requestApproved(address bookAddr) public {\n        Book book = Book(bookAddr);\n        Author author = Author(book.authContract());\n        require(msg.sender == book.author());\n        publishedBooks.push(bookAddr);\n        delete requests[bookAddr];\n        //add event\n    }\n    \n    function requestRejected(address bookAddr) public {\n        Book book = Book(bookAddr);\n        Author author = Author(book.authContract());\n        require(msg.sender == book.author());\n        delete requests[bookAddr];//check this function\n    }\n    \n}\n",
  "sourcePath": "/media/sonu/067A23BD7A23A87F/Major/publish_auth/PrivateContract/contracts/Publisher.sol",
  "compiler": {
    "name": "solc",
    "version": "0.5.0+commit.1d4f565a.Emscripten.clang"
  },
  "schemaVersion": "3.0.5",
  "updatedAt": "2019-04-19T02:05:38.717Z",
  "devdoc": {
    "methods": {}
  },
  "userdoc": {
    "methods": {}
  }
}