{
  "contractName": "OnlineBooksAuthenticity",
  "abi": [
    {
      "constant": true,
      "inputs": [
        {
          "name": "",
          "type": "address"
        }
      ],
      "name": "publishers",
      "outputs": [
        {
          "name": "",
          "type": "uint8"
        }
      ],
      "payable": false,
      "stateMutability": "view",
      "type": "function"
    },
    {
      "constant": true,
      "inputs": [],
      "name": "contState",
      "outputs": [
        {
          "name": "",
          "type": "uint8"
        }
      ],
      "payable": false,
      "stateMutability": "view",
      "type": "function"
    },
    {
      "constant": true,
      "inputs": [
        {
          "name": "",
          "type": "address"
        }
      ],
      "name": "approvedAuthors",
      "outputs": [
        {
          "name": "",
          "type": "bool"
        }
      ],
      "payable": false,
      "stateMutability": "view",
      "type": "function"
    },
    {
      "constant": true,
      "inputs": [],
      "name": "pubState",
      "outputs": [
        {
          "name": "",
          "type": "uint8"
        }
      ],
      "payable": false,
      "stateMutability": "view",
      "type": "function"
    },
    {
      "constant": true,
      "inputs": [],
      "name": "bookInformation",
      "outputs": [
        {
          "name": "",
          "type": "string"
        }
      ],
      "payable": false,
      "stateMutability": "view",
      "type": "function"
    },
    {
      "constant": true,
      "inputs": [
        {
          "name": "",
          "type": "address"
        }
      ],
      "name": "recordList",
      "outputs": [
        {
          "name": "",
          "type": "bool"
        }
      ],
      "payable": false,
      "stateMutability": "view",
      "type": "function"
    },
    {
      "constant": true,
      "inputs": [],
      "name": "author",
      "outputs": [
        {
          "name": "",
          "type": "address"
        }
      ],
      "payable": false,
      "stateMutability": "view",
      "type": "function"
    },
    {
      "constant": true,
      "inputs": [
        {
          "name": "",
          "type": "address"
        }
      ],
      "name": "bookHashes",
      "outputs": [
        {
          "name": "",
          "type": "string"
        }
      ],
      "payable": false,
      "stateMutability": "view",
      "type": "function"
    },
    {
      "inputs": [],
      "payable": false,
      "stateMutability": "nonpayable",
      "type": "constructor"
    },
    {
      "anonymous": false,
      "inputs": [
        {
          "indexed": false,
          "name": "owner",
          "type": "address"
        },
        {
          "indexed": false,
          "name": "info",
          "type": "string"
        }
      ],
      "name": "ContractCreated",
      "type": "event"
    },
    {
      "anonymous": false,
      "inputs": [
        {
          "indexed": false,
          "name": "publisher",
          "type": "address"
        },
        {
          "indexed": false,
          "name": "info",
          "type": "string"
        }
      ],
      "name": "RequestedForApproval",
      "type": "event"
    },
    {
      "anonymous": false,
      "inputs": [
        {
          "indexed": false,
          "name": "author",
          "type": "address"
        },
        {
          "indexed": false,
          "name": "info",
          "type": "string"
        }
      ],
      "name": "PermissionGrantedToPublish",
      "type": "event"
    },
    {
      "anonymous": false,
      "inputs": [
        {
          "indexed": false,
          "name": "publisher",
          "type": "address"
        },
        {
          "indexed": false,
          "name": "info",
          "type": "string"
        }
      ],
      "name": "ValidationSuccess",
      "type": "event"
    },
    {
      "anonymous": false,
      "inputs": [
        {
          "indexed": false,
          "name": "author",
          "type": "address"
        },
        {
          "indexed": false,
          "name": "info",
          "type": "string"
        }
      ],
      "name": "FailedApproval",
      "type": "event"
    },
    {
      "anonymous": false,
      "inputs": [
        {
          "indexed": false,
          "name": "publisher",
          "type": "address"
        },
        {
          "indexed": false,
          "name": "info",
          "type": "string"
        }
      ],
      "name": "ReviseContent",
      "type": "event"
    },
    {
      "anonymous": false,
      "inputs": [
        {
          "indexed": false,
          "name": "publisher",
          "type": "address"
        },
        {
          "indexed": false,
          "name": "info",
          "type": "string"
        },
        {
          "indexed": false,
          "name": "author",
          "type": "address"
        }
      ],
      "name": "ValidationHistorySuccess",
      "type": "event"
    },
    {
      "anonymous": false,
      "inputs": [
        {
          "indexed": false,
          "name": "publisher",
          "type": "address"
        },
        {
          "indexed": false,
          "name": "info",
          "type": "string"
        },
        {
          "indexed": false,
          "name": "author",
          "type": "address"
        }
      ],
      "name": "FailedValidationHistory",
      "type": "event"
    },
    {
      "constant": false,
      "inputs": [],
      "name": "createContract",
      "outputs": [],
      "payable": false,
      "stateMutability": "nonpayable",
      "type": "function"
    },
    {
      "constant": false,
      "inputs": [
        {
          "name": "publisherAddress",
          "type": "address"
        },
        {
          "name": "bookHash",
          "type": "string"
        }
      ],
      "name": "requestApproval",
      "outputs": [],
      "payable": false,
      "stateMutability": "nonpayable",
      "type": "function"
    },
    {
      "constant": false,
      "inputs": [
        {
          "name": "publisherAddress",
          "type": "address"
        }
      ],
      "name": "provideApprovalResult",
      "outputs": [],
      "payable": false,
      "stateMutability": "nonpayable",
      "type": "function"
    },
    {
      "constant": false,
      "inputs": [
        {
          "name": "owner",
          "type": "address"
        },
        {
          "name": "publisherAddress",
          "type": "address"
        },
        {
          "name": "authorAddress",
          "type": "address"
        }
      ],
      "name": "traceBackHistory",
      "outputs": [],
      "payable": false,
      "stateMutability": "nonpayable",
      "type": "function"
    }
  ],
  "bytecode": "0x60806040523480156200001157600080fd5b506040805190810160405280600f81526020017f576f726b206f662046696374696f6e0000000000000000000000000000000000815250600190805190602001906200005f9291906200019e565b50336000806101000a81548173ffffffffffffffffffffffffffffffffffffffff021916908373ffffffffffffffffffffffffffffffffffffffff1602179055506040805190810160405280600e81526020017f44616e69656c6c6520537465656c00000000000000000000000000000000000081525060039080519060200190620000ed9291906200019e565b50606060405190810160405280602e81526020017f516d58676d3551565479387052744b7254506d6f575047584e6573656843705081526020017f346a6a464d54707647616d63317000000000000000000000000000000000000081525060029080519060200190620001629291906200019e565b506000600460006101000a81548160ff021916908360048111156200018357fe5b021790555060006009819055506000600a819055506200024d565b828054600181600116156101000203166002900490600052602060002090601f016020900481019282601f10620001e157805160ff191683800117855562000212565b8280016001018555821562000212579182015b8281111562000211578251825591602001919060010190620001f4565b5b50905062000221919062000225565b5090565b6200024a91905b80821115620002465760008160009055506001016200022c565b5090565b90565b611842806200025d6000396000f3fe6080604052600436106100ba576000357c0100000000000000000000000000000000000000000000000000000000900463ffffffff1680630a4d85cd146100bf5780631bdd3cbe146101325780631dc4ee881461021a57806337a0b89b146102535780633da90134146102bc5780634056814c146102f5578063412a5a6d146103855780634fe2939d1461039c578063668a495b14610405578063a6c3e6b914610496578063b2340b68146104ed578063cea5971d146105b7575b600080fd5b3480156100cb57600080fd5b5061010e600480360360208110156100e257600080fd5b81019080803573ffffffffffffffffffffffffffffffffffffffff169060200190929190505050610608565b6040518082600381111561011e57fe5b60ff16815260200191505060405180910390f35b34801561013e57600080fd5b506102186004803603604081101561015557600080fd5b81019080803573ffffffffffffffffffffffffffffffffffffffff1690602001909291908035906020019064010000000081111561019257600080fd5b8201836020820111156101a457600080fd5b803590602001918460018302840111640100000000831117156101c657600080fd5b91908080601f016020809104026020016040519081016040528093929190818152602001838380828437600081840152601f19601f820116905080830192505050505050509192919290505050610628565b005b34801561022657600080fd5b5061022f6108d6565b6040518082600481111561023f57fe5b60ff16815260200191505060405180910390f35b34801561025f57600080fd5b506102a26004803603602081101561027657600080fd5b81019080803573ffffffffffffffffffffffffffffffffffffffff1690602001909291905050506108e9565b604051808215151515815260200191505060405180910390f35b3480156102c857600080fd5b506102d1610909565b604051808260038111156102e157fe5b60ff16815260200191505060405180910390f35b34801561030157600080fd5b5061030a61091c565b6040518080602001828103825283818151815260200191508051906020019080838360005b8381101561034a57808201518184015260208101905061032f565b50505050905090810190601f1680156103775780820380516001836020036101000a031916815260200191505b509250505060405180910390f35b34801561039157600080fd5b5061039a6109ba565b005b3480156103a857600080fd5b506103eb600480360360208110156103bf57600080fd5b81019080803573ffffffffffffffffffffffffffffffffffffffff169060200190929190505050610b0b565b604051808215151515815260200191505060405180910390f35b34801561041157600080fd5b506104946004803603606081101561042857600080fd5b81019080803573ffffffffffffffffffffffffffffffffffffffff169060200190929190803573ffffffffffffffffffffffffffffffffffffffff169060200190929190803573ffffffffffffffffffffffffffffffffffffffff169060200190929190505050610b2b565b005b3480156104a257600080fd5b506104ab610e83565b604051808273ffffffffffffffffffffffffffffffffffffffff1673ffffffffffffffffffffffffffffffffffffffff16815260200191505060405180910390f35b3480156104f957600080fd5b5061053c6004803603602081101561051057600080fd5b81019080803573ffffffffffffffffffffffffffffffffffffffff169060200190929190505050610ea8565b6040518080602001828103825283818151815260200191508051906020019080838360005b8381101561057c578082015181840152602081019050610561565b50505050905090810190601f1680156105a95780820380516001836020036101000a031916815260200191505b509250505060405180910390f35b3480156105c357600080fd5b50610606600480360360208110156105da57600080fd5b81019080803573ffffffffffffffffffffffffffffffffffffffff169060200190929190505050610f58565b005b60086020528060005260406000206000915054906101000a900460ff1681565b6000809054906101000a900473ffffffffffffffffffffffffffffffffffffffff1673ffffffffffffffffffffffffffffffffffffffff163373ffffffffffffffffffffffffffffffffffffffff161415151561068457600080fd5b6001600481111561069157fe5b600460009054906101000a900460ff1660048111156106ac57fe5b14801561071b5750600060038111156106c157fe5b600860008473ffffffffffffffffffffffffffffffffffffffff1673ffffffffffffffffffffffffffffffffffffffff16815260200190815260200160002060009054906101000a900460ff16600381111561071957fe5b145b151561072657600080fd5b6001600860008473ffffffffffffffffffffffffffffffffffffffff1673ffffffffffffffffffffffffffffffffffffffff16815260200190815260200160002060006101000a81548160ff0219169083600381111561078257fe5b02179055506003600460006101000a81548160ff021916908360048111156107a657fe5b021790555080600760008473ffffffffffffffffffffffffffffffffffffffff1673ffffffffffffffffffffffffffffffffffffffff16815260200190815260200160002090805190602001906107fe929190611771565b507f0b7bbff0dc5fdbec48d0ad182e48548f4c5606c90668bec82ac980eceaf2f77333604051808273ffffffffffffffffffffffffffffffffffffffff1673ffffffffffffffffffffffffffffffffffffffff16815260200180602001828103825260368152602001807f41747465737420616e642056616c696461746520646f63756d656e7420746f2081526020017f70726f6365656420666f72207075626c697368696e67000000000000000000008152506040019250505060405180910390a160016009600082825401925050819055505050565b600460009054906101000a900460ff1681565b60066020528060005260406000206000915054906101000a900460ff1681565b600460019054906101000a900460ff1681565b60018054600181600116156101000203166002900480601f0160208091040260200160405190810160405280929190818152602001828054600181600116156101000203166002900480156109b25780601f10610987576101008083540402835291602001916109b2565b820191906000526020600020905b81548152906001019060200180831161099557829003601f168201915b505050505081565b6000809054906101000a900473ffffffffffffffffffffffffffffffffffffffff1673ffffffffffffffffffffffffffffffffffffffff163373ffffffffffffffffffffffffffffffffffffffff16141515610a1557600080fd5b60006004811115610a2257fe5b600460009054906101000a900460ff166004811115610a3d57fe5b141515610a4957600080fd5b6001600460006101000a81548160ff02191690836004811115610a6857fe5b02179055507f5748f17320a7bfc4dad968e541c61b9fa9923765f9efdfa3dffc76763e02d19633604051808273ffffffffffffffffffffffffffffffffffffffff1673ffffffffffffffffffffffffffffffffffffffff16815260200180602001828103825260188152602001807f57616974696e6720666f72205075626c6973686572732e2e00000000000000008152506020019250505060405180910390a1565b60056020528060005260406000206000915054906101000a900460ff1681565b60036004811115610b3857fe5b600460009054906101000a900460ff166004811115610b5357fe5b148015610bc2575060026003811115610b6857fe5b600860008473ffffffffffffffffffffffffffffffffffffffff1673ffffffffffffffffffffffffffffffffffffffff16815260200190815260200160002060009054906101000a900460ff166003811115610bc057fe5b145b1515610bcd57600080fd5b60011515600560008473ffffffffffffffffffffffffffffffffffffffff1673ffffffffffffffffffffffffffffffffffffffff16815260200190815260200160002060009054906101000a900460ff161515148015610c7d575060011515600660008473ffffffffffffffffffffffffffffffffffffffff1673ffffffffffffffffffffffffffffffffffffffff16815260200190815260200160002060009054906101000a900460ff161515145b15610e7e576000809054906101000a900473ffffffffffffffffffffffffffffffffffffffff1673ffffffffffffffffffffffffffffffffffffffff168173ffffffffffffffffffffffffffffffffffffffff161415610dac577f86f0ce6b61b086024ebd298eabfc3371cc2856a61f13b81008575c78cf5b0bac8282604051808373ffffffffffffffffffffffffffffffffffffffff1673ffffffffffffffffffffffffffffffffffffffff168152602001806020018373ffffffffffffffffffffffffffffffffffffffff1673ffffffffffffffffffffffffffffffffffffffff1681526020018281038252601b8152602001807f54686520636f6e74656e742069732076657269666965642062793a0000000000815250602001935050505060405180910390a1610e7d565b7fc4d5e89505bf4870181d9a196536a305478516def34a330fb98f6560f48054da8282604051808373ffffffffffffffffffffffffffffffffffffffff1673ffffffffffffffffffffffffffffffffffffffff168152602001806020018373ffffffffffffffffffffffffffffffffffffffff1673ffffffffffffffffffffffffffffffffffffffff1681526020018281038252601f8152602001807f54686520636f6e74656e74206973204e6f742056657269666965642062793a00815250602001935050505060405180910390a15b5b505050565b6000809054906101000a900473ffffffffffffffffffffffffffffffffffffffff1681565b60076020528060005260406000206000915090508054600181600116156101000203166002900480601f016020809104026020016040519081016040528092919081815260200182805460018160011615610100020316600290048015610f505780601f10610f2557610100808354040283529160200191610f50565b820191906000526020600020905b815481529060010190602001808311610f3357829003601f168201915b505050505081565b6000809054906101000a900473ffffffffffffffffffffffffffffffffffffffff1673ffffffffffffffffffffffffffffffffffffffff163373ffffffffffffffffffffffffffffffffffffffff16141515610fb357600080fd5b60036004811115610fc057fe5b600460009054906101000a900460ff166004811115610fdb57fe5b14801561104a575060016003811115610ff057fe5b600860008373ffffffffffffffffffffffffffffffffffffffff1673ffffffffffffffffffffffffffffffffffffffff16815260200190815260200160002060009054906101000a900460ff16600381111561104857fe5b145b151561105557600080fd5b600260405180828054600181600116156101000203166002900480156110b25780601f106110905761010080835404028352918201916110b2565b820191906000526020600020905b81548152906001019060200180831161109e575b50509150506040518091039020600760008373ffffffffffffffffffffffffffffffffffffffff1673ffffffffffffffffffffffffffffffffffffffff16815260200190815260200160002060405180828054600181600116156101000203166002900480156111595780601f10611137576101008083540402835291820191611159565b820191906000526020600020905b815481529060010190602001808311611145575b5050915050604051809103902014156113f1577f9ecdc72629544c57e07d4ad9ad06b1752ad2aa1fd012b492e2648bc52547648e33604051808273ffffffffffffffffffffffffffffffffffffffff1673ffffffffffffffffffffffffffffffffffffffff168152602001806020018281038252601c8152602001807f436f6e74656e7420566572696669656420627920417574686f722e20000000008152506020019250505060405180910390a16002600860008373ffffffffffffffffffffffffffffffffffffffff1673ffffffffffffffffffffffffffffffffffffffff16815260200190815260200160002060006101000a81548160ff0219169083600381111561126457fe5b02179055506001600560008373ffffffffffffffffffffffffffffffffffffffff1673ffffffffffffffffffffffffffffffffffffffff16815260200190815260200160002060006101000a81548160ff0219169083151502179055506001600660008373ffffffffffffffffffffffffffffffffffffffff1673ffffffffffffffffffffffffffffffffffffffff16815260200190815260200160002060006101000a81548160ff0219169083151502179055506001600a600082825401925050819055507f6a8631a55e9a051559f93898d7bab45981eb82c36fecbc77256bc93af8826dfe81604051808273ffffffffffffffffffffffffffffffffffffffff1673ffffffffffffffffffffffffffffffffffffffff16815260200180602001828103825260228152602001807f50726f6365656420746f205075626c69736820436f6e74656e74206f6e20495081526020017f46530000000000000000000000000000000000000000000000000000000000008152506040019250505060405180910390a161176e565b6002604051808280546001816001161561010002031660029004801561144e5780601f1061142c57610100808354040283529182019161144e565b820191906000526020600020905b81548152906001019060200180831161143a575b50509150506040518091039020600760008373ffffffffffffffffffffffffffffffffffffffff1673ffffffffffffffffffffffffffffffffffffffff16815260200190815260200160002060405180828054600181600116156101000203166002900480156114f55780601f106114d35761010080835404028352918201916114f5565b820191906000526020600020905b8154815290600101906020018083116114e1575b5050915050604051809103902014151561176d577f159da0d7bb81fb987a7b3facd641bdbec279ff4b036a257fc585d8ef94d5052c33604051808273ffffffffffffffffffffffffffffffffffffffff1673ffffffffffffffffffffffffffffffffffffffff16815260200180602001828103825260548152602001807f20436f6e74656e74204d6f646966696564202f20436f727275707465643a204881526020017f61736820646f6573206e6f74206d61746368202e204661696c656420746f206281526020017f6520617070726f76656420627920417574686f720000000000000000000000008152506060019250505060405180910390a16000600560008373ffffffffffffffffffffffffffffffffffffffff1673ffffffffffffffffffffffffffffffffffffffff16815260200190815260200160002060006101000a81548160ff0219169083151502179055506003600860008373ffffffffffffffffffffffffffffffffffffffff1673ffffffffffffffffffffffffffffffffffffffff16815260200190815260200160002060006101000a81548160ff021916908360038111156116a557fe5b02179055507f78ac3d60d60fbf6cbd0cf9816e237d6eba02853d97d20da8fc8f50094c4dc37f81604051808273ffffffffffffffffffffffffffffffffffffffff1673ffffffffffffffffffffffffffffffffffffffff16815260200180602001828103825260318152602001807f20416d656e6420636f6e74656e7420616e64207265717565737420666f72206181526020017f74746573746174696f6e20616761696e2e0000000000000000000000000000008152506040019250505060405180910390a15b5b50565b828054600181600116156101000203166002900490600052602060002090601f016020900481019282601f106117b257805160ff19168380011785556117e0565b828001600101855582156117e0579182015b828111156117df5782518255916020019190600101906117c4565b5b5090506117ed91906117f1565b5090565b61181391905b8082111561180f5760008160009055506001016117f7565b5090565b9056fea165627a7a72305820845ce89c438c40750531ad8fe47776e9bd6fed3ac9da0c68178d15bcf4d535b10029",
  "source": "pragma solidity >=0.4.0 <0.6.0;\n\ncontract OnlineBooksAuthenticity  {\n\n    address public author;\n    string public bookInformation; \n    string IPFShashAuthor;\n    string authorName;\n\n    enum contractState { NotReady,Created,WaitingForPublishers,WaitingToProvideApproval, Aborted}\n    contractState public contState; \n    enum publisherState {ReadyToSubmit, SubmittedForApproval, ValidationSuccess, FailedValidation}\n    publisherState public pubState;\n    \n    mapping (address=> bool) public recordList;//addresses of publishers and results (true or false)\n    mapping (address => bool) public approvedAuthors ; \n    mapping(address=>string) public bookHashes; //hashes provided by publishers\n    mapping(address=>publisherState) public publishers;\n    \n    uint  numberOfRequestsByPublishers; \n    uint numberOfApprovalsByAuthor;\n\n    //constructor\n\n    constructor() public{\n        bookInformation = \"Work of Fiction\";\n        author= msg.sender;\n        authorName= \"Danielle Steel\"; \n        IPFShashAuthor= \"QmXgm5QVTy8pRtKrTPmoWPGXNesehCpP4jjFMTpvGamc1p\";\n        contState = contractState.NotReady;\n        numberOfRequestsByPublishers = 0;\n        numberOfApprovalsByAuthor = 0;\n    }\n    //modifiers\n    modifier  OnlyAuthor(){\n        require(msg.sender == author); \n        _;\n    }\n    modifier NotAuthor(){\n        require(msg.sender!=author);\n        _;\n    }\n\n    //events\n    event ContractCreated(address owner, string info);\n    event RequestedForApproval(address publisher , string info);    \n    event PermissionGrantedToPublish(address author , string info);\n    event ValidationSuccess(address publisher, string info);     \n    event FailedApproval(address author, string info);\n    event ReviseContent(address publisher, string info);\n    event ValidationHistorySuccess(address publisher,string info, address author);\n    event FailedValidationHistory(address publisher,string info, address author);\n\n    function createContract() OnlyAuthor public{\n        require(contState == contractState.NotReady);\n        contState = contractState.Created;\n        emit ContractCreated(msg.sender, \"Waiting for Publishers..\");\n    }\n    \n    function requestApproval(address publisherAddress, string memory bookHash) NotAuthor public  {\n        require(contState==contractState.Created && publishers[publisherAddress] == publisherState.ReadyToSubmit);\n        publishers[publisherAddress] = publisherState.SubmittedForApproval;\n        contState = contractState.WaitingToProvideApproval;\n        bookHashes[publisherAddress] = bookHash; //update the mapping\n        emit RequestedForApproval(msg.sender, \"Attest and Validate document to proceed for publishing\");\n        numberOfRequestsByPublishers += 1;\n    }\n    \n \n    function provideApprovalResult( address publisherAddress) OnlyAuthor public {\n        \n        require(contState==contractState.WaitingToProvideApproval && (publishers[publisherAddress] ==publisherState.SubmittedForApproval));\n    \n        if(keccak256(bytes(bookHashes[publisherAddress])) == keccak256(bytes(IPFShashAuthor))) {\n            emit PermissionGrantedToPublish(msg.sender, \"Content Verified by Author. \");\n            publishers[publisherAddress] = publisherState.ValidationSuccess;\n            recordList[publisherAddress] = true;\n            approvedAuthors[publisherAddress] = true;\n            numberOfApprovalsByAuthor += 1;\n            emit ValidationSuccess(publisherAddress, \"Proceed to Publish Content on IPFS\");\n        } else if(keccak256(bytes(bookHashes[publisherAddress])) != keccak256(bytes(IPFShashAuthor))){\n            emit FailedApproval (msg.sender, \" Content Modified / Corrupted: Hash does not match . Failed to be approved by Author\");\n            recordList[publisherAddress] = false;\n            publishers[publisherAddress] = publisherState.FailedValidation;\n            emit ReviseContent(publisherAddress, \" Amend content and request for attestation again.\");\n        }\n    }\n    function traceBackHistory( address owner, address publisherAddress, address authorAddress ) public {\n        require(contState==contractState.WaitingToProvideApproval && (publishers[publisherAddress] == publisherState.ValidationSuccess));\n        if(recordList[publisherAddress] == true && approvedAuthors[publisherAddress] == true )\n            if(authorAddress == author) {\n                emit ValidationHistorySuccess(publisherAddress,\"The content is verified by:\", authorAddress);\n            } else {\n                emit FailedValidationHistory(publisherAddress,\"The content is Not Verified by:\", authorAddress);\n            }\n    }\n}",
  "sourcePath": "/media/sonu/067A23BD7A23A87F/Major/PrivateContracts/contracts/OnlineBooksAuthenticity.sol",
  "compiler": {
    "name": "solc",
    "version": "0.5.0+commit.1d4f565a.Emscripten.clang"
  },
  "schemaVersion": "3.0.1",
  "updatedAt": "2019-03-06T15:08:46.110Z",
  "devdoc": {
    "methods": {}
  },
  "userdoc": {
    "methods": {}
  }
}