{
  "contractName": "AddInteger",
  "abi": [
    {
      "constant": false,
      "inputs": [
        {
          "name": "_a",
          "type": "uint256"
        },
        {
          "name": "_b",
          "type": "uint256"
        }
      ],
      "name": "addition",
      "outputs": [
        {
          "name": "",
          "type": "uint256"
        }
      ],
      "payable": false,
      "stateMutability": "nonpayable",
      "type": "function",
      "signature": "0x54f363a3"
    }
  ],
  "bytecode": "0x608060405234801561001057600080fd5b5060db8061001f6000396000f3fe608060405260043610603f576000357c0100000000000000000000000000000000000000000000000000000000900463ffffffff16806354f363a3146044575b600080fd5b348015604f57600080fd5b50608360048036036040811015606457600080fd5b8101908080359060200190929190803590602001909291905050506099565b6040518082815260200191505060405180910390f35b600081830160008190555060005490509291505056fea165627a7a723058204214c3eecba8ba9ee11e9b4f0e8b452915fa4b75db2a1d40d409debc7d51d6e00029",
  "source": "pragma solidity >=0.4.0 <0.6.0;\ncontract AddInteger{\n    uint private c;\n    function addition(uint _a, uint _b) public returns(uint){\n        c = _a+_b;\n        return c;\n    } \n}",
  "sourcePath": "/media/sonu/067A23BD7A23A87F/Major/publish_auth/private-chain/contracts/AddInteger.sol",
  "compiler": {
    "name": "solc",
    "version": "0.5.0+commit.1d4f565a.Emscripten.clang"
  },
  "schemaVersion": "3.0.1",
  "updatedAt": "2019-02-13T16:18:24.807Z",
  "devdoc": {
    "methods": {}
  },
  "userdoc": {
    "methods": {}
  }
}