{
  "contractName": "AddInteger",
  "abi": [
    {
      "inputs": [],
      "payable": false,
      "stateMutability": "nonpayable",
      "type": "constructor",
      "signature": "constructor"
    },
    {
      "anonymous": false,
      "inputs": [
        {
          "indexed": true,
          "name": "_from",
          "type": "address"
        },
        {
          "indexed": false,
          "name": "_value",
          "type": "uint256"
        }
      ],
      "name": "Transfer",
      "type": "event",
      "signature": "0x69ca02dd4edd7bf0a4abb9ed3b7af3f14778db5d61921c7dc7cd545266326de2"
    },
    {
      "constant": false,
      "inputs": [
        {
          "name": "_a",
          "type": "uint256"
        },
        {
          "name": "_b",
          "type": "uint256"
        }
      ],
      "name": "addTwoNumbers",
      "outputs": [
        {
          "name": "sufficient",
          "type": "uint256"
        }
      ],
      "payable": false,
      "stateMutability": "nonpayable",
      "type": "function",
      "signature": "0xe2276f1c"
    },
    {
      "constant": true,
      "inputs": [],
      "name": "getNumber",
      "outputs": [
        {
          "name": "",
          "type": "uint256"
        }
      ],
      "payable": false,
      "stateMutability": "view",
      "type": "function",
      "signature": "0xf2c9ecd8"
    }
  ],
  "bytecode": "0x608060405234801561001057600080fd5b50600080819055506000600160003273ffffffffffffffffffffffffffffffffffffffff1673ffffffffffffffffffffffffffffffffffffffff168152602001908152602001600020819055506101f48061006c6000396000f3fe60806040526004361061004c576000357c0100000000000000000000000000000000000000000000000000000000900463ffffffff168063e2276f1c14610051578063f2c9ecd8146100aa575b600080fd5b34801561005d57600080fd5b506100946004803603604081101561007457600080fd5b8101908080359060200190929190803590602001909291905050506100d5565b6040518082815260200191505060405180910390f35b3480156100b657600080fd5b506100bf610181565b6040518082815260200191505060405180910390f35b6000818301600081905550600054600160003373ffffffffffffffffffffffffffffffffffffffff1673ffffffffffffffffffffffffffffffffffffffff168152602001908152602001600020819055503373ffffffffffffffffffffffffffffffffffffffff167f69ca02dd4edd7bf0a4abb9ed3b7af3f14778db5d61921c7dc7cd545266326de26000546040518082815260200191505060405180910390a2600054905092915050565b6000600160003373ffffffffffffffffffffffffffffffffffffffff1673ffffffffffffffffffffffffffffffffffffffff1681526020019081526020016000205490509056fea165627a7a72305820947e24336111e3392a04a3817f88a1dd14eb7b27b5a90e6dfd5d0699f47686360029",
  "source": "pragma solidity >=0.4.0 <0.6.0;\n\ncontract AddInteger {\n    uint c;\n    mapping (address => uint) answers;\n    event Transfer(address indexed _from,  uint256 _value);\n    constructor() public {\n        c = 0;\n        answers[tx.origin] = 0;\n    }\n    function addTwoNumbers(uint _a, uint _b) public returns(uint sufficient) {\n        c = _a + _b;\n        answers[msg.sender] = c;\n        emit Transfer(msg.sender,  c);\n        return c;\n    }\n    function getNumber() public view returns(uint){\n        return answers[msg.sender];\n    }\n\n}",
  "sourcePath": "/media/sonu/067A23BD7A23A87F/Major/publish_auth/private-chain/contracts/AddInteger.sol",
  "compiler": {
    "name": "solc",
    "version": "0.5.0+commit.1d4f565a.Emscripten.clang"
  },
  "schemaVersion": "3.0.1",
  "updatedAt": "2019-02-14T06:32:01.605Z",
  "devdoc": {
    "methods": {}
  },
  "userdoc": {
    "methods": {}
  }
}