{
  "contractName": "AddInteger",
  "abi": [
    {
      "inputs": [],
      "payable": false,
      "stateMutability": "nonpayable",
      "type": "constructor",
      "signature": "constructor"
    },
    {
      "constant": false,
      "inputs": [
        {
          "name": "_a",
          "type": "uint256"
        },
        {
          "name": "_b",
          "type": "uint256"
        }
      ],
      "name": "addTwoNumbers",
      "outputs": [
        {
          "name": "sufficient",
          "type": "uint256"
        }
      ],
      "payable": false,
      "stateMutability": "nonpayable",
      "type": "function",
      "signature": "0xe2276f1c"
    },
    {
      "constant": true,
      "inputs": [],
      "name": "getNumber",
      "outputs": [
        {
          "name": "",
          "type": "uint256"
        }
      ],
      "payable": false,
      "stateMutability": "view",
      "type": "function",
      "signature": "0xf2c9ecd8"
    }
  ],
  "bytecode": "0x608060405234801561001057600080fd5b5060008081905550610116806100276000396000f3fe6080604052600436106049576000357c0100000000000000000000000000000000000000000000000000000000900463ffffffff168063e2276f1c14604e578063f2c9ecd81460a3575b600080fd5b348015605957600080fd5b50608d60048036036040811015606e57600080fd5b81019080803590602001909291908035906020019092919050505060cb565b6040518082815260200191505060405180910390f35b34801560ae57600080fd5b5060b560e1565b6040518082815260200191505060405180910390f35b6000818301600081905550600054905092915050565b6000805490509056fea165627a7a72305820f02889d1d04adc47a647f97b1232f35c46bf4a3c9668e8708ec85904bf3f50c70029",
  "source": "pragma solidity >=0.4.0 <0.6.0;\n\ncontract AddInteger {\n    uint c;\n    constructor() public {\n        c = 0;\n    }\n    function addTwoNumbers(uint _a, uint _b) public returns(uint sufficient) {\n        c = _a + _b;\n        return c;\n    }\n    function getNumber() public view returns(uint){\n        return c;\n    }\n\n}",
  "sourcePath": "/media/sonu/067A23BD7A23A87F/Major/publish_auth/private-chain/contracts/AddInteger.sol",
  "compiler": {
    "name": "solc",
    "version": "0.5.0+commit.1d4f565a.Emscripten.clang"
  },
  "schemaVersion": "3.0.1",
  "updatedAt": "2019-02-13T19:07:32.257Z",
  "devdoc": {
    "methods": {}
  },
  "userdoc": {
    "methods": {}
  }
}